{
  "_format": "hh-sol-artifact-1",
  "contractName": "CommunityReward",
  "sourceName": "contracts/CommunityReward.sol",
  "abi": [
    {
      "inputs": [
        {
          "internalType": "contract IBEP20",
          "name": "_stakeToken",
          "type": "address"
        },
        {
          "internalType": "contract IBEP20",
          "name": "_rewardToken",
          "type": "address"
        },
        {
          "internalType": "address",
          "name": "_burnAddress",
          "type": "address"
        },
        {
          "internalType": "address",
          "name": "_divPoolAddress",
          "type": "address"
        },
        {
          "internalType": "uint256",
          "name": "_rewardPerBlock",
          "type": "uint256"
        },
        {
          "internalType": "uint256",
          "name": "_startBlock",
          "type": "uint256"
        },
        {
          "internalType": "uint256",
          "name": "_endBlock",
          "type": "uint256"
        },
        {
          "internalType": "uint256",
          "name": "_divPoolFee",
          "type": "uint256"
        },
        {
          "internalType": "uint256",
          "name": "_divBurnFee",
          "type": "uint256"
        }
      ],
      "stateMutability": "nonpayable",
      "type": "constructor"
    },
    {
      "anonymous": false,
      "inputs": [
        {
          "indexed": true,
          "internalType": "address",
          "name": "user",
          "type": "address"
        },
        {
          "indexed": false,
          "internalType": "uint256",
          "name": "amount",
          "type": "uint256"
        }
      ],
      "name": "Deposit",
      "type": "event"
    },
    {
      "anonymous": false,
      "inputs": [
        {
          "indexed": true,
          "internalType": "address",
          "name": "user",
          "type": "address"
        },
        {
          "indexed": false,
          "internalType": "uint256",
          "name": "amount",
          "type": "uint256"
        }
      ],
      "name": "EmergencyWithdraw",
      "type": "event"
    },
    {
      "anonymous": false,
      "inputs": [
        {
          "indexed": true,
          "internalType": "address",
          "name": "previousOwner",
          "type": "address"
        },
        {
          "indexed": true,
          "internalType": "address",
          "name": "newOwner",
          "type": "address"
        }
      ],
      "name": "OwnershipTransferred",
      "type": "event"
    },
    {
      "anonymous": false,
      "inputs": [
        {
          "indexed": true,
          "internalType": "address",
          "name": "user",
          "type": "address"
        },
        {
          "indexed": true,
          "internalType": "address",
          "name": "userTo",
          "type": "address"
        },
        {
          "indexed": false,
          "internalType": "uint256",
          "name": "reward",
          "type": "uint256"
        }
      ],
      "name": "ReferralPaid",
      "type": "event"
    },
    {
      "anonymous": false,
      "inputs": [
        {
          "indexed": true,
          "internalType": "address",
          "name": "user",
          "type": "address"
        },
        {
          "indexed": false,
          "internalType": "uint256",
          "name": "reward",
          "type": "uint256"
        }
      ],
      "name": "RewardPaid",
      "type": "event"
    },
    {
      "anonymous": false,
      "inputs": [
        {
          "indexed": true,
          "internalType": "address",
          "name": "user",
          "type": "address"
        },
        {
          "indexed": false,
          "internalType": "uint256",
          "name": "amount",
          "type": "uint256"
        }
      ],
      "name": "RewardWithdraw",
      "type": "event"
    },
    {
      "anonymous": false,
      "inputs": [
        {
          "indexed": true,
          "internalType": "address",
          "name": "sender",
          "type": "address"
        },
        {
          "indexed": true,
          "internalType": "address",
          "name": "burnAddress",
          "type": "address"
        }
      ],
      "name": "SetBurnAddress",
      "type": "event"
    },
    {
      "anonymous": false,
      "inputs": [
        {
          "indexed": true,
          "internalType": "address",
          "name": "sender",
          "type": "address"
        },
        {
          "indexed": true,
          "internalType": "address",
          "name": "divPoolAddress",
          "type": "address"
        }
      ],
      "name": "SetDevPoolAddress",
      "type": "event"
    },
    {
      "anonymous": false,
      "inputs": [
        {
          "indexed": true,
          "internalType": "address",
          "name": "sender",
          "type": "address"
        },
        {
          "indexed": true,
          "internalType": "address",
          "name": "referralAddress",
          "type": "address"
        }
      ],
      "name": "SetRewardReferralAddress",
      "type": "event"
    },
    {
      "anonymous": false,
      "inputs": [
        {
          "indexed": true,
          "internalType": "address",
          "name": "user",
          "type": "address"
        },
        {
          "indexed": false,
          "internalType": "uint256",
          "name": "_endBlock",
          "type": "uint256"
        }
      ],
      "name": "StopReward",
      "type": "event"
    },
    {
      "anonymous": false,
      "inputs": [
        {
          "indexed": true,
          "internalType": "address",
          "name": "user",
          "type": "address"
        },
        {
          "indexed": false,
          "internalType": "uint256",
          "name": "amount",
          "type": "uint256"
        }
      ],
      "name": "Withdraw",
      "type": "event"
    },
    {
      "inputs": [],
      "name": "DIV_REFERRAL_FEE",
      "outputs": [
        {
          "internalType": "uint256",
          "name": "",
          "type": "uint256"
        }
      ],
      "stateMutability": "view",
      "type": "function"
    },
    {
      "inputs": [],
      "name": "burnAddress",
      "outputs": [
        {
          "internalType": "address",
          "name": "",
          "type": "address"
        }
      ],
      "stateMutability": "view",
      "type": "function"
    },
    {
      "inputs": [
        {
          "internalType": "uint256",
          "name": "_amount",
          "type": "uint256"
        },
        {
          "internalType": "address",
          "name": "referrer",
          "type": "address"
        }
      ],
      "name": "deposit",
      "outputs": [],
      "stateMutability": "nonpayable",
      "type": "function"
    },
    {
      "inputs": [],
      "name": "divBurnFee",
      "outputs": [
        {
          "internalType": "uint256",
          "name": "",
          "type": "uint256"
        }
      ],
      "stateMutability": "view",
      "type": "function"
    },
    {
      "inputs": [],
      "name": "divPoolAddress",
      "outputs": [
        {
          "internalType": "address",
          "name": "",
          "type": "address"
        }
      ],
      "stateMutability": "view",
      "type": "function"
    },
    {
      "inputs": [],
      "name": "divPoolFee",
      "outputs": [
        {
          "internalType": "uint256",
          "name": "",
          "type": "uint256"
        }
      ],
      "stateMutability": "view",
      "type": "function"
    },
    {
      "inputs": [],
      "name": "emergencyWithdraw",
      "outputs": [],
      "stateMutability": "nonpayable",
      "type": "function"
    },
    {
      "inputs": [],
      "name": "endBlock",
      "outputs": [
        {
          "internalType": "uint256",
          "name": "",
          "type": "uint256"
        }
      ],
      "stateMutability": "view",
      "type": "function"
    },
    {
      "inputs": [
        {
          "internalType": "uint256",
          "name": "_from",
          "type": "uint256"
        },
        {
          "internalType": "uint256",
          "name": "_to",
          "type": "uint256"
        }
      ],
      "name": "getMultiplierForBlocks",
      "outputs": [
        {
          "internalType": "uint256",
          "name": "",
          "type": "uint256"
        }
      ],
      "stateMutability": "view",
      "type": "function"
    },
    {
      "inputs": [],
      "name": "owner",
      "outputs": [
        {
          "internalType": "address",
          "name": "",
          "type": "address"
        }
      ],
      "stateMutability": "view",
      "type": "function"
    },
    {
      "inputs": [
        {
          "internalType": "address",
          "name": "_user",
          "type": "address"
        }
      ],
      "name": "pendingReward",
      "outputs": [
        {
          "internalType": "uint256",
          "name": "",
          "type": "uint256"
        }
      ],
      "stateMutability": "view",
      "type": "function"
    },
    {
      "inputs": [],
      "name": "poolInfo",
      "outputs": [
        {
          "internalType": "contract IBEP20",
          "name": "stakeToken",
          "type": "address"
        },
        {
          "internalType": "uint256",
          "name": "lastRewardBlock",
          "type": "uint256"
        },
        {
          "internalType": "uint256",
          "name": "accRewardTokenPerShare",
          "type": "uint256"
        }
      ],
      "stateMutability": "view",
      "type": "function"
    },
    {
      "inputs": [],
      "name": "renounceOwnership",
      "outputs": [],
      "stateMutability": "nonpayable",
      "type": "function"
    },
    {
      "inputs": [],
      "name": "rewardPerBlock",
      "outputs": [
        {
          "internalType": "uint256",
          "name": "",
          "type": "uint256"
        }
      ],
      "stateMutability": "view",
      "type": "function"
    },
    {
      "inputs": [],
      "name": "rewardReferral",
      "outputs": [
        {
          "internalType": "address",
          "name": "",
          "type": "address"
        }
      ],
      "stateMutability": "view",
      "type": "function"
    },
    {
      "inputs": [],
      "name": "rewardToken",
      "outputs": [
        {
          "internalType": "contract IBEP20",
          "name": "",
          "type": "address"
        }
      ],
      "stateMutability": "view",
      "type": "function"
    },
    {
      "inputs": [],
      "name": "rewardWithdraw",
      "outputs": [],
      "stateMutability": "nonpayable",
      "type": "function"
    },
    {
      "inputs": [
        {
          "internalType": "address",
          "name": "_burnAddr",
          "type": "address"
        }
      ],
      "name": "setBurnAddress",
      "outputs": [],
      "stateMutability": "nonpayable",
      "type": "function"
    },
    {
      "inputs": [
        {
          "internalType": "address",
          "name": "_divPoolAddress",
          "type": "address"
        }
      ],
      "name": "setDivPoolAddress",
      "outputs": [],
      "stateMutability": "nonpayable",
      "type": "function"
    },
    {
      "inputs": [
        {
          "internalType": "address",
          "name": "_rewardReferral",
          "type": "address"
        }
      ],
      "name": "setRewardReferral",
      "outputs": [],
      "stateMutability": "nonpayable",
      "type": "function"
    },
    {
      "inputs": [],
      "name": "stakeToken",
      "outputs": [
        {
          "internalType": "contract IBEP20",
          "name": "",
          "type": "address"
        }
      ],
      "stateMutability": "view",
      "type": "function"
    },
    {
      "inputs": [],
      "name": "startBlock",
      "outputs": [
        {
          "internalType": "uint256",
          "name": "",
          "type": "uint256"
        }
      ],
      "stateMutability": "view",
      "type": "function"
    },
    {
      "inputs": [
        {
          "internalType": "address",
          "name": "newOwner",
          "type": "address"
        }
      ],
      "name": "transferOwnership",
      "outputs": [],
      "stateMutability": "nonpayable",
      "type": "function"
    },
    {
      "inputs": [],
      "name": "updatePool",
      "outputs": [],
      "stateMutability": "nonpayable",
      "type": "function"
    },
    {
      "inputs": [
        {
          "internalType": "address",
          "name": "",
          "type": "address"
        }
      ],
      "name": "userInfo",
      "outputs": [
        {
          "internalType": "uint256",
          "name": "amount",
          "type": "uint256"
        },
        {
          "internalType": "uint256",
          "name": "rewardDebt",
          "type": "uint256"
        }
      ],
      "stateMutability": "view",
      "type": "function"
    },
    {
      "inputs": [
        {
          "internalType": "uint256",
          "name": "_amount",
          "type": "uint256"
        }
      ],
      "name": "withdraw",
      "outputs": [],
      "stateMutability": "nonpayable",
      "type": "function"
    }
  ],
  "bytecode": "0x6101606040523480156200001257600080fd5b5060405162001ab838038062001ab88339810160408190526200003591620001a8565b600080546001600160a01b031916339081178255604051909182917f8be0079c531659141344cd1fd0a4f28419497f9722a3daafe3b4186f6b6457e0908290a3506101f46200009382846200019360201b620010ce1790919060201c565b1115620000f15760405162461bcd60e51b815260206004820152602260248201527f546f74616c206665652063616e6e6f7420626520686967686572207468616e20604482015261352560f01b606482015260840160405180910390fd5b6001600160601b031960608a811b821660805298891b1660a052600580546001600160a01b039889166001600160a01b031991821617909155600680549789169782169790971790965560c09490945260e0839052610100919091526101205261014091909152604080519485018152929094168084526020840185905260009390920183905260018054909116909117905560029190915560035562000280565b6000620001a1828462000242565b9392505050565b60008060008060008060008060006101208a8c031215620001c7578485fd5b8951620001d48162000267565b60208b0151909950620001e78162000267565b60408b0151909850620001fa8162000267565b60608b01519097506200020d8162000267565b8096505060808a0151945060a08a0151935060c08a0151925060e08a015191506101008a015190509295985092959850929598565b600082198211156200026257634e487b7160e01b81526011600452602481fd5b500190565b6001600160a01b03811681146200027d57600080fd5b50565b60805160601c60a05160601c60c05160e05161010051610120516101405161177c6200033c6000396000818161029a01526109b501526000818161021101526109640152600081816101ac015281816104da01528181610512015281816105440152610c02015260006102c10152600081816103a301528181610e42015261105401526000818161042c01528181610628015281816108da01528181610c9601528181610d2c01526111ca015260006102fb015261177c6000f3fe608060405234801561001057600080fd5b506004361061018d5760003560e01c80636e553f65116100de578063db2e21bc11610097578063f2fde38b11610071578063f2fde38b14610401578063f40f0f5214610414578063f7c618c114610427578063fc3964ed1461044e57600080fd5b8063db2e21bc146103e9578063df5d0341146103f1578063e3161ddd146103f957600080fd5b80636e553f651461037057806370d5ae0514610383578063715018a6146103965780638ae39cac1461039e5780638da5cb5b146103c55780638f3eef5f146103d657600080fd5b80632e1a7d4d1161014b5780634b0e7216116101255780634b0e7216146102e357806351ed6a30146102f65780635a2f3d091461031d57806367bed16a1461035d57600080fd5b80632e1a7d4d1461028257806334d3a6871461029557806348cd4cb1146102bc57600080fd5b80622dcfb914610192578063083c6323146101a75780630cdb43c4146101e1578063115ee2131461020c5780631959a002146102335780631b3a99a71461026f575b600080fd5b6101a56101a0366004611522565b610457565b005b6101ce7f000000000000000000000000000000000000000000000000000000000000000081565b6040519081526020015b60405180910390f35b6007546101f4906001600160a01b031681565b6040516001600160a01b0390911681526020016101d8565b6101ce7f000000000000000000000000000000000000000000000000000000000000000081565b61025a610241366004611522565b6004602052600090815260409020805460019091015482565b604080519283526020830191909152016101d8565b6101ce61027d3660046115d9565b6104d6565b6101a561029036600461157a565b61056f565b6101ce7f000000000000000000000000000000000000000000000000000000000000000081565b6101ce7f000000000000000000000000000000000000000000000000000000000000000081565b6101a56102f1366004611522565b61070b565b6101f47f000000000000000000000000000000000000000000000000000000000000000081565b600154600254600354610338926001600160a01b0316919083565b604080516001600160a01b0390941684526020840192909252908201526060016101d8565b6006546101f4906001600160a01b031681565b6101a561037e3660046115aa565b610781565b6005546101f4906001600160a01b031681565b6101a5610a6e565b6101ce7f000000000000000000000000000000000000000000000000000000000000000081565b6000546001600160a01b03166101f4565b6101a56103e4366004611522565b610ae2565b6101a5610b58565b6101a5610bc9565b6101a5610d8d565b6101a561040f366004611522565b610e9d565b6101ce610422366004611522565b610f87565b6101f47f000000000000000000000000000000000000000000000000000000000000000081565b6101ce6105dc81565b6000546001600160a01b0316331461048a5760405162461bcd60e51b815260040161048190611649565b60405180910390fd5b600780546001600160a01b0319166001600160a01b03831690811790915560405133907fc38d5241a0e3b11cbb7fa74cfaa9cf418dc3f696f245702ae5ac7ed98a745a9e90600090a350565b60007f000000000000000000000000000000000000000000000000000000000000000082116105105761050982846110e1565b9050610569565b7f0000000000000000000000000000000000000000000000000000000000000000831061053f57506000610569565b6105097f0000000000000000000000000000000000000000000000000000000000000000846110e1565b92915050565b3360009081526004602052604090208054600191908311156105c85760405162461bcd60e51b81526020600482015260126024820152711dda5d1a191c985dce881b9bdd0819dbdbd960721b6044820152606401610481565b6105d0610d8d565b600061060a826001015461060464e8d4a510006105fe876002015487600001546110ed90919063ffffffff16565b906110f9565b906110e1565b905080156106855761061b81611105565b61064f6001600160a01b037f0000000000000000000000000000000000000000000000000000000000000000163383611237565b60405181815233907fe2403640ba68fed3a2f88b7557551d1993f84b99bb10ff833f0cf8db0c5e04869060200160405180910390a25b83156106af57815461069790856110e1565b825582546106af906001600160a01b03163386611237565b600283015482546106ca9164e8d4a51000916105fe916110ed565b600183015560405184815233907f884edad9ce6fa2440d8a54cc123490eb96d2768479d49ff9c7366125a9424364906020015b60405180910390a250505050565b6000546001600160a01b031633146107355760405162461bcd60e51b815260040161048190611649565b600580546001600160a01b0319166001600160a01b03831690811790915560405133907f4a776f62b8dbd1d1307ad396609f9eaec90260598c090dd09f3375b7770b662890600090a350565b33600090815260046020526040902060025460019190431015806107a3575083155b6107e65760405162461bcd60e51b81526020600482015260146024820152731c1bdbdb08191a591b9d081cdd185c9d081e595d60621b6044820152606401610481565b6107ee610d8d565b60008411801561080857506007546001600160a01b031615155b801561081c57506001600160a01b03831615155b15610887576007546040516315403fe160e21b81523360048201526001600160a01b03858116602483015290911690635500ff8490604401600060405180830381600087803b15801561086e57600080fd5b505af1158015610882573d6000803e3d6000fd5b505050505b8054156109395760006108bc826001015461060464e8d4a510006105fe876002015487600001546110ed90919063ffffffff16565b90508015610937576108cd81611105565b6109016001600160a01b037f0000000000000000000000000000000000000000000000000000000000000000163383611237565b60405181815233907fe2403640ba68fed3a2f88b7557551d1993f84b99bb10ff833f0cf8db0c5e04869060200160405180910390a25b505b8315610a1c578154610956906001600160a01b031633308761129a565b60006109886127106105fe877f00000000000000000000000000000000000000000000000000000000000000006110ed565b60065484549192506109a7916001600160a01b03908116911683611237565b60006109d96127106105fe887f00000000000000000000000000000000000000000000000000000000000000006110ed565b60055485549192506109f8916001600160a01b03908116911683611237565b610a1781610604846106048a88600001546110ce90919063ffffffff16565b835550505b60028201548154610a379164e8d4a51000916105fe916110ed565b600182015560405184815233907fe1fffcc4923d04b559f4d29a8bfc6cda04eb5b0d3c460751c2402c5c5cc9109c906020016106fd565b6000546001600160a01b03163314610a985760405162461bcd60e51b815260040161048190611649565b600080546040516001600160a01b03909116907f8be0079c531659141344cd1fd0a4f28419497f9722a3daafe3b4186f6b6457e0908390a3600080546001600160a01b0319169055565b6000546001600160a01b03163314610b0c5760405162461bcd60e51b815260040161048190611649565b600680546001600160a01b0319166001600160a01b03831690811790915560405133907fefe191d36b9f8ee74a6a95afa1bce88e29be33cf3976724b8d77db7d1f2a348890600090a350565b3360008181526004602052604090208054600180549093610b84926001600160a01b0390921691611237565b805460405190815233907f5fafa99d0643513820be26656b45130b01e1c03062e1266bf36f88cbd3bd96959060200160405180910390a2600080825560019091015550565b6000546001600160a01b03163314610bf35760405162461bcd60e51b815260040161048190611649565b610c00436204650061167e565b7f00000000000000000000000000000000000000000000000000000000000000001115610c7e5760405162461bcd60e51b815260206004820152602660248201527f497420746f6f206561726c7920746f2077697468647261772072657761726420604482015265746f6b656e7360d01b6064820152608401610481565b6040516370a0823160e01b81523060048201526000907f00000000000000000000000000000000000000000000000000000000000000006001600160a01b0316906370a082319060240160206040518083038186803b158015610ce057600080fd5b505afa158015610cf4573d6000803e3d6000fd5b505050506040513d601f19601f82011682018060405250810190610d189190611592565b600654909150610d55906001600160a01b037f00000000000000000000000000000000000000000000000000000000000000008116911683611237565b60405181815233907f6553897c25961cd3a105492c25576d0552123ee868aca283e90f3b4224d7d1779060200160405180910390a250565b6002546001904311610d9c5750565b80546040516370a0823160e01b81523060048201526000916001600160a01b0316906370a082319060240160206040518083038186803b158015610ddf57600080fd5b505afa158015610df3573d6000803e3d6000fd5b505050506040513d601f19601f82011682018060405250810190610e179190611592565b905080610e28575043600190910155565b6000610e388360010154436104d6565b90506000610e66827f00000000000000000000000000000000000000000000000000000000000000006110ed565b9050610e89610e7e846105fe8464e8d4a510006110ed565b6002860154906110ce565b600285015550504360019092019190915550565b6000546001600160a01b03163314610ec75760405162461bcd60e51b815260040161048190611649565b6001600160a01b038116610f2c5760405162461bcd60e51b815260206004820152602660248201527f4f776e61626c653a206e6577206f776e657220697320746865207a65726f206160448201526564647265737360d01b6064820152608401610481565b600080546040516001600160a01b03808516939216917f8be0079c531659141344cd1fd0a4f28419497f9722a3daafe3b4186f6b6457e091a3600080546001600160a01b0319166001600160a01b0392909216919091179055565b6001600160a01b0381811660009081526004602081905260408083206003546001805493516370a0823160e01b81523095810195909552949591939092869216906370a082319060240160206040518083038186803b158015610fe957600080fd5b505afa158015610ffd573d6000803e3d6000fd5b505050506040513d601f19601f820116820180604052508101906110219190611592565b905083600101544311801561103557508015155b1561109c57600061104a8560010154436104d6565b90506000611078827f00000000000000000000000000000000000000000000000000000000000000006110ed565b9050611097611090846105fe8464e8d4a510006110ed565b85906110ce565b935050505b6110c4836001015461060464e8d4a510006105fe8688600001546110ed90919063ffffffff16565b9695505050505050565b60006110da828461167e565b9392505050565b60006110da82846116d5565b60006110da82846116b6565b60006110da8284611696565b60006111196127106105fe846105dc6110ed565b6007549091506000906001600160a01b0316156111ae57600754604051632087569360e01b81523360048201526001600160a01b039091169063208756939060240160206040518083038186803b15801561117357600080fd5b505afa158015611187573d6000803e3d6000fd5b505050506040513d601f19601f820116820180604052508101906111ab919061153e565b90505b6001600160a01b03811615611232576111f16001600160a01b037f0000000000000000000000000000000000000000000000000000000000000000168284611237565b6040518281526001600160a01b0382169033907f0a721ab4682ceb61c7e4d264ef879fc419a6d764b136e7d96ef54b2053c756739060200160405180910390a35b505050565b6040516001600160a01b03831660248201526044810182905261123290849063a9059cbb60e01b906064015b60408051601f198184030181529190526020810180516001600160e01b03166001600160e01b0319909316929092179091526112d8565b6040516001600160a01b03808516602483015283166044820152606481018290526112d29085906323b872dd60e01b90608401611263565b50505050565b600061132d826040518060400160405280602081526020017f5361666542455032303a206c6f772d6c6576656c2063616c6c206661696c6564815250856001600160a01b03166113aa9092919063ffffffff16565b805190915015611232578080602001905181019061134b919061155a565b6112325760405162461bcd60e51b815260206004820152602a60248201527f5361666542455032303a204245503230206f7065726174696f6e20646964206e6044820152691bdd081cdd58d8d9595960b21b6064820152608401610481565b60606113b984846000856113c1565b949350505050565b6060824710156114225760405162461bcd60e51b815260206004820152602660248201527f416464726573733a20696e73756666696369656e742062616c616e636520666f6044820152651c8818d85b1b60d21b6064820152608401610481565b843b6114705760405162461bcd60e51b815260206004820152601d60248201527f416464726573733a2063616c6c20746f206e6f6e2d636f6e74726163740000006044820152606401610481565b600080866001600160a01b0316858760405161148c91906115fa565b60006040518083038185875af1925050503d80600081146114c9576040519150601f19603f3d011682016040523d82523d6000602084013e6114ce565b606091505b50915091506114de8282866114e9565b979650505050505050565b606083156114f85750816110da565b8251156115085782518084602001fd5b8160405162461bcd60e51b81526004016104819190611616565b600060208284031215611533578081fd5b81356110da8161172e565b60006020828403121561154f578081fd5b81516110da8161172e565b60006020828403121561156b578081fd5b815180151581146110da578182fd5b60006020828403121561158b578081fd5b5035919050565b6000602082840312156115a3578081fd5b5051919050565b600080604083850312156115bc578081fd5b8235915060208301356115ce8161172e565b809150509250929050565b600080604083850312156115eb578182fd5b50508035926020909101359150565b6000825161160c8184602087016116ec565b9190910192915050565b60208152600082518060208401526116358160408501602087016116ec565b601f01601f19169190910160400192915050565b6020808252818101527f4f776e61626c653a2063616c6c6572206973206e6f7420746865206f776e6572604082015260600190565b6000821982111561169157611691611718565b500190565b6000826116b157634e487b7160e01b81526012600452602481fd5b500490565b60008160001904831182151516156116d0576116d0611718565b500290565b6000828210156116e7576116e7611718565b500390565b60005b838110156117075781810151838201526020016116ef565b838111156112d25750506000910152565b634e487b7160e01b600052601160045260246000fd5b6001600160a01b038116811461174357600080fd5b5056fea2646970667358221220090f9ea69c75adf05d67bcc6446d945f93603a51f8eb36b4f8d3d8013fce5c6e64736f6c63430008040033",
  "linkReferences": {},
  "deployedLinkReferences": {}
}